S01600004350552041546D656761333238502E73726563EA
S11300000C945E000C9470000C9470000C947000BE
S11300100C9470000C9470000C9470000C9470009C
S11300200C9470000C9470000C9470000C9470008C
S11300300C9470000C9470000C9470000C9470007C
S11300400C9470000C9470000C9470000C9470006C
S11300500C9470000C9470000C9470000C9470005C
S11300600C9470000C9470002807CB02E202000389
S113007015032A033F03540363038803AD03D20328
S1130080FD032804530478049D04C804F3041405F0
S1130090350556057D0586059305A005AD05BC050A
S11300A0CB05D805E905F005FC050D061E06350649
S11300B04C06520658068806BF06EF0611241FBEDA
S11300C0CFEFD8E0DEBFCDBF28E0A0E0B1E001C0B3
S11300D01D92A43AB207E1F70E947C070C94640ACB
S11300E00C9400004F925F926F927F928F929F9236
S11300F0AF92BF92EF92FF920F931F93CF93DF9330
S11301004A015B01E7014881407EF42E48838D302B
S11301109105B9F030F48B30910549F00C9761F0FA
S113012037C08031910591F04197A9F031C0082979
S113013019292A293B2930C0082119212A213B21C8
S11301402BC0082519252A253B2526C0080D191D75
S11301502A1D3B1D21C0C901B8010E94A2099B01AF
S1130160AC0160E070E080E09FE40E94F9082B019C
S11301703C01C501B4010E94A209A30192010E949D
S1130180FA080E946B09022F132F242F352F04C065
S113019000E010E020E030E0C901B801012B022B9F
S11301A0032B19F42F2D24602883288123FB332764
S11301B030F921FB442740F9431711F020612883CB
S11301C0DF91CF911F910F91FF90EF90BF90AF906F
S11301D09F908F907F906F905F904F90089514B888
S11301E017B81AB815B818B81BB808954F925F928B
S11301F06F927F928F929F92AF92BF92CF92DF9233
S1130200EF92FF9280E090E00E9468074B015C014E
S113021081E090E00E9468076B017C0189B190E065
S11302200E9468072B013C0183B190E00E9468079B
S11302304427562F672F782F442A552A662A772A6F
S113024086B190E00E946807552744274429552920
S11302506629772982E090E00E945307BB27AB2DE3
S11302609A2D892D84B9C501AA27BB2787B98AB8D5
S1130270BB27AF2D9E2D8D2D85B9C701AA27BB277E
S113028088B9CBB8FF90EF90DF90CF90BF90AF903C
S11302909F908F907F906F905F904F9008958F9272
S11302A09F92AF92BF92CF92DF92EF92FF920F9301
S11302B01F9382E090E00E9468076B017C0185E057
S11302C090E00E9468078B019C0140E050E0BA0175
S11302D047C081E090E0042E02C0880F991F0A9461
S11302E0E2F7092E000CAA0BBB0B48015901882226
S11302F09922AA22BB2289288A288B2869F1F1E055
S11303004601570188229922AA22BB2289288A28D9
S11303108B2809F4F0E08090000190900101A090F6
S11303200201B090030188219921AA21BB21E1E0B7
S1130330892B8A2B8B2B09F4E0E0FE1769F00BB3B1
S113034010E01395C8010E946807AB01BC0141602D
S1130350C8010E9453070AC04F5F5F4F6F4F7F4F22
S1130360403251056105710508F4B3CFC092000114
S1130370D0920101E0920201F09203011F910F91CA
S1130380FF90EF90DF90CF90BF90AF909F908F90B1
S11303900895CF93DF93EC0160918E0170918F01EA
S11303A080E090E00E94940880918D018F7D80937D
S11303B08D01D0938F01C0938E01DF91CF91089569
S11303C0CF9380918D0185FF1CC084E090E00E9452
S11303D06807C62F83E090E00E946807C0FF11C041
S11303E060FF0FC084E090E00E946807AB01BC018D
S11303F04E7F84E090E00E94530782E090E00E94E8
S1130400C901CF9108951092900110929101109218
S113041092011092930110929401109295011092FE
S113042096011092970110928F0110928E011092F2
S11304308D0110928C0110928B0110928A011092FE
S11304408901109285011092860110928701109201
S113045088011092840110920001109201011092FF
S113046002011092030180E090E0DC010EC0FC0167
S1130470EE0FFF1FEE0FFF1FEC5FFE4F1082118285
S1130480128213820196A11DB11D80329105A1052E
S1130490B10568F30E943A070E9473080E9481071D
S11304A00E94EF000895EF92FF920F931F93CF9352
S11304B0DF9380918401813041F120F0823009F48E
S11304C05EC0CBC480918E0190918F010E9455082B
S11304D020939001309391014093920150939301A2
S11304E06093940170939501809396019093970182
S11304F080918E0190918F01019690938F0180934A
S11305008E0181E080938401AAC4B0919001A091EE
S11305109101F0919201E0919301F0909401109176
S11305209501D0919601C09197012B2F3A2F4F2F0F
S11305305E2F6F2D712F8D2F9C2F00E10E94480A92
S113054020938B0130938C012B2F3A2F4F2F5E2F4A
S11305506F2D712F8D2F9C2F08E00E94480A209345
S1130560890130938A01B0938501A0938601F093A9
S11305708701E093880182E08093840170C4E09154
S11305808B01F0918C01EA32F10508F05FC4EC5C58
S1130590FF4F0C94400AE0918901F0918A01EE0F1B
S11305A0FF1FEE0FFF1FEC5FFE4F809185019091BE
S11305B08601A0918701B091880180839183A283F1
S11305C0B38346C4E0918901F0918A01A091850129
S11305D0B0918601AA0FBB1FAA0FBB1FAC5FBE4F11
S11305E08D919D910D90BC91A02DEE0FFF1FEE0FEC
S11305F0FF1FEC5FFE4F80839183A283B38328C4E3
S1130600E0918501F0918601EE0FFF1FEE0FFF1FB1
S1130610EC5FFE4F40815181628173818091890139
S113062090918A010E94530713C4C0918901D0910B
S11306308A0180918501909186010E946807CC0F00
S1130640DD1FCC0FDD1FCC5FDE4F688379838A8387
S11306509B83FEC3E0918501F0918601EE0FFF1F9D
S1130660EE0FFF1FEC5FFE4F408151816281738169
S11306708091890190918A010E945307E9C3C09136
S11306808901D0918A0180918501909186010E940F
S11306906807CC0FDD1FCC0FDD1FCC5FDE4F6883F6
S11306A079838A839B83D4C3E0918901F0918A0181
S11306B0EE0FFF1FEE0FFF1FEC5FFE4F1082118243
S11306C012821382C5C3C0918901D0918A0100911D
S11306D08501109186012091870130918801CC0F0A
S11306E0DD1FCC0FDD1FCC5FDE4F488159816A814D
S11306F07B810F2EFDE8EF2EF1E0FF2EF02D8BE035
S113070090E00E947200688379838A839B83A0C3EC
S1130710C0918901D0918A010091850110918601CF
S11307202091870130918801CC0FDD1FCC0FDD1F94
S1130730CC5FDE4F488159816A817B810F2EFDE8B1
S1130740EF2EF1E0FF2EF02D8CE090E00E9472007D
S1130750688379838A839B837BC3C0918901D09109
S11307608A010091850110918601209187013091C1
S11307708801CC0FDD1FCC0FDD1FCC5FDE4F48811D
S113078059816A817B810F2EFDE8EF2EF1E0FF2E67
S1130790F02D8DE090E00E947200688379838A8353
S11307A09B8356C3C0918901D0918A01E091850150
S11307B0F0918601EE0FFF1FEE0FFF1FEC5FFE4F5F
S11307C00081118122813381CC0FDD1FCC0FDD1F0D
S11307D0CC5FDE4F488159816A817B810F2EFDE811
S11307E0EF2EF1E0FF2EF02D8BE090E00E947200DE
S11307F0688379838A839B832BC3C0918901D091B9
S11308008A01E0918501F0918601EE0FFF1FEE0F42
S1130810FF1FEC5FFE4F0081118122813381CC0FD9
S1130820DD1FCC0FDD1FCC5FDE4F488159816A810B
S11308307B810F2EFDE8EF2EF1E0FF2EF02D8CE0F2
S113084090E00E947200688379838A839B8300C34B
S1130850C0918901D0918A01E0918501F0918601CE
S1130860EE0FFF1FEE0FFF1FEC5FFE4F00811181A3
S113087022813381CC0FDD1FCC0FDD1FCC5FDE4F17
S1130880488159816A817B810F2EFDE8EF2EF1E0CA
S1130890FF2EF02D8DE090E00E9472006883798332
S11308A08A839B83D5C2C0918901D0918A0100912A
S11308B08501109186012091870130918801CC0F28
S11308C0DD1FCC0FDD1FCC5FDE4F488159816A816B
S11308D07B810F2EFDE8EF2EF1E0FF2EF02D80E15D
S11308E090E00E947200688379838A839B83B0C2FC
S11308F0C0918901D0918A010091850110918601EE
S11309002091870130918801CC0FDD1FCC0FDD1FB2
S1130910CC5FDE4F488159816A817B810F2EFDE8CF
S1130920EF2EF1E0FF2EF02D81E190E00E947200A5
S1130930688379838A839B838BC2C0918901D09118
S11309408A01E0918501F0918601EE0FFF1FEE0F01
S1130950FF1FEC5FFE4F0081118122813381CC0F98
S1130960DD1FCC0FDD1FCC5FDE4F488159816A81CA
S11309707B810F2EFDE8EF2EF1E0FF2EF02D80E1BC
S113098090E00E947200688379838A839B8360C2AB
S1130990C0918901D0918A01E0918501F09186018D
S11309A0EE0FFF1FEE0FFF1FEC5FFE4F0081118162
S11309B022813381CC0FDD1FCC0FDD1FCC5FDE4FD6
S11309C0488159816A817B810F2EFDE8EF2EF1E089
S11309D0FF2EF02D81E190E00E94720068837983FC
S11309E08A839B8335C2C0918901D0918A01CC0F3F
S11309F0DD1FCC0FDD1FCC5FDE4F488159816A813A
S1130A007B810F2EFDE8EF2EF1E0FF2EF02D01E0AB
S1130A1010E020E030E080E190E00E947200688302
S1130A2079838A839B8314C2C0918901D0918A01FE
S1130A30CC0FDD1FCC0FDD1FCC5FDE4F4881598109
S1130A406A817B810F2EFDE8EF2EF1E0FF2EF02D61
S1130A5001E010E020E030E081E190E00E947200CB
S1130A60688379838A839B83F3C1E0918901F09140
S1130A708A01EE0FFF1FEE0FFF1FEC5FFE4F408158
S1130A8051816281738100918501109186012091C9
S1130A908701309188010F2EFDE8EF2EF1E0FF2E43
S1130AA0F02D81E190E00E947200D2C1E0918501B5
S1130AB0F0918601EE0FFF1FEE0FFF1FEC5FFE4F5C
S1130AC00081118122813381E0918901F0918A01B1
S1130AD0EE0FFF1FEE0FFF1FEC5FFE4F40815181B1
S1130AE0628173810F2EFDE8EF2EF1E0FF2EF02DD1
S1130AF081E190E00E947200ABC1809189019091E4
S1130B008A0190938F0180938E01A2C180918D01FF
S1130B1082FF9EC18091890190918A0190938F01F7
S1130B2080938E0195C180918D0182FD91C1809148
S1130B30890190918A0190938F0180938E0188C1DD
S1130B4080918D0184FD84C18091890190918A01F5
S1130B5090938F0180938E017BC180918D0184FDE0
S1130B6077C182FD75C18091890190918A0190932A
S1130B708F0180938E016CC180918D0184FD02C030
S1130B8082FF66C18091890190918A0190938F01BF
S1130B9080938E015DC180918D0184FF59C1809144
S1130BA0890190918A0190938F0180938E0150C1A5
S1130BB060918E0170918F0180E090E00E94940812
S1130BC08091890190918A0190938F0180938E0185
S1130BD03FC10E94C80870938F0160938E0138C191
S1130BE00E94C80870938F0160938E0180918D01DB
S1130BF0806280938D012CC1E0918901F0918A017A
S1130C00EE0FFF1FEE0FFF1FEC5FFE4F608171813F
S1130C10828193810E9494081BC1C0918901D09163
S1130C208A010E94C808CC0FDD1FCC0FDD1FCC5FEA
S1130C30DE4F688379838A839B830AC1E0918901AB
S1130C40F0918A01EE0FFF1FEE0FFF1FEC5FFE4FC6
S1130C5080819181A281B381880F991FAA1FBB1F34
S1130C6080839183A283B383F3C0E0918901F091DF
S1130C708A01EE0FFF1FEE0FFF1FEC5FFE4F808116
S1130C809181A281B381B695A79597958795808325
S1130C909183A283B383DCC080918D0180628093B1
S1130CA08D01D6C080918D018F7D80938D01D0C040
S1130CB02091890130918A01F901EE0FFF1FEE0F97
S1130CC0FF1FEC5FFE4F80819181A281B381F90106
S1130CD03196EE0FFF1FEE0FFF1FEC5FFE4F4081BA
S1130CE0518162817381542F4427842B952BE09189
S1130CF08501F0918601EE0FFF1FEE0FFF1FEC5FE1
S1130D00FE4F40815181628173810E945307A0C0CC
S1130D10409185015091860160918701709188010D
S1130D20FA01EE0FFF1FEE0FFF1FEC5FFE4F8081F5
S1130D309181A281B3814F5F5F4F6F4F7F4F440F0B
S1130D40551F440F551FFA01EC5FFE4F408151813E
S1130D5062817381542F4427842B952BC091890180
S1130D60D0918A010E946807CC0FDD1FCC0FDD1FD4
S1130D70CC5FDE4F688379838A839B8369C020912B
S1130D80890130918A01F901EE0FFF1FEE0FFF1F59
S1130D90EC5FFE4F80819181A281B381F90131968C
S1130DA0EE0FFF1FEE0FFF1FEC5FFE4F40815181DE
S1130DB062817381542F4427842B952BE091850104
S1130DC0F0918601EE0FFF1FEE0FFF1FEC5FFE4F49
S1130DD040815181628173810E94530739C04091DF
S1130DE08501509186016091870170918801FA0113
S1130DF0EE0FFF1FEE0FFF1FEC5FFE4F808191810E
S1130E00A281B3814F5F5F4F6F4F7F4F440F551FD8
S1130E10440F551FFA01EC5FFE4F408151816281FE
S1130E207381542F4427842B952BC0918901D09131
S1130E308A010E946807CC0FDD1FCC0FDD1FCC5F39
S1130E40DE4F688379838A839B8302C00E940302F6
S1130E50109284010E94E00102C00E9403020E94D9
S1130E60F6000E944F01DF91CF911F910F91FF90E7
S1130E70EF90089580E090E0DC010EC0FC01EE0FDD
S1130E80FF1FEE0FFF1FE856FE4F108211821282E1
S1130E9013820196A11DB11D8C3221E09207A10598
S1130EA0B10560F308958C3221E0920770F4880F45
S1130EB0991F880F991FFC01E856FE4F4083518308
S1130EC06283738380E090E0089581E090E0089568
S1130ED08C3221E0920760F4880F991F880F991FC4
S1130EE0FC01E856FE4F60817181828193810895EF
S1130EF060E070E0CB0108950E9403020E94530257
S1130F00FDCF809148068111CFC0E9E4F6E010825C
S1130F1011821282138264E06483158286E18683DF
S1130F2017821086118612861386148615861686F5
S1130F301786108A118A128A138A9FE0948B158A65
S1130F40868B178A108E118E128E138E148E158E28
S1130F50168E178E10A211A212A213A296E094A3C9
S1130F6015A29DE196A317A210A611A612A613A678
S1130F7075E074A715A686A717A610AA81E081AB11
S1130F8012AA13AA30E134AB15AA86AB17AA30AF64
S1130F9011AE12AE13AE14AE15AE93E096AF17AE0B
S1130FA0E9E8F6E0108250E251831282138241E1B3
S1130FB04483158286831782E1E9F6E04083118237
S1130FC0128213828483158296831782E9E9F6E0FC
S1130FD010821182128213821482158224E22683E3
S1130FE01782E1EAF6E0808311821282138228E1FB
S1130FF02483158286831782E9EAF6E0208311822E
S1131000128213829483158296831782E1EBF6E0B1
S1131010408311821282138274831582968317820D
S1131020E9EBF6E010821182128213821482158297
S11310304EE146831782E1ECF6E042E04083118200
S1131040128213822483158266831782E9ECF6E008
S113105010825183128213822483158229E026830D
S11310601782E1EDF6E0108211821282138223E1ED
S11310702483158227E126831782E9EDF6E0308385
S11310801182128213824483158296831782E1EEC1
S1131090F6E01082118212821382148215829FE17B
S11310A0968317828093480608958931910590F4B8
S11310B0880F991F880F991F880F991FFC01E75B00
S11310C0F94F208131814281538164817581868108
S11310D09781089520E030E040E050E060E070E067
S11310E080E090E0089580E090E0DC010EC0FC0117
S11310F0EE0FFF1FEE0FFF1FEC5EF84F1082118200
S1131100128213820196A11DB11D84369105A10599
S1131110B10568F383E690E0909313078093120778
S113112081E08093110708954091120750911307AD
S11311304115510551F120911107222389F09A019B
S1131140220F331F220F331FF901EC5EF84F608327
S11311507183828393831092110780E090E0089555
S11311609A01215031093093130720931207220F5B
S1131170331F220F331FF901EC5EF84F6083718334
S11311808283938380E090E0089581E090E0089565
S113119080911107811129C0809112079091130742
S11311A08336910598F49C012F5F3F4F30931307CA
S11311B020931207880F991F880F991FFC01EC5E7A
S11311C0F84F6081718182819381089521E0209399
S11311D01107880F991F880F991FFC01EC5EF84FC7
S11311E06081718182819381089560E070E0CB0118
S11311F008955058BB27AA270E9411090C94060A87
S11312000E94F80938F00E94FF0920F039F49F3F4A
S113121019F426F40C94E5090EF4E095E7FB0C941C
S1131220DF09E92F0E94170A58F3BA1762077307F8
S11312308407950720F079F4A6F50C94390A0EF486
S1131240E0950B2EBA2FA02D0B01B90190010C01D2
S1131250CA01A0011124FF27591B99F0593F50F4EA
S1131260503E68F11A16F040A22F232F342F442742
S1131270585FF3CF469537952795A795F04053953A
S1131280C9F77EF41F16BA0B620B730B840BBAF00A
S11312909150A1F0FF0FBB1F661F771F881FC2F775
S11312A00EC0BA0F621F731F841F48F48795779589
S11312B06795B795F7959E3F08F0B0CF9395880F43
S11312C008F09927EE0F979587950895BEE304D00B
S11312D008F490E80895BFE322273327A9010E9468
S11312E01F0A60F19F5748F1B91740F1BFE3B91BDA
S11312F09927B8503AF4660F771F881F991FB39542
S1131300D2F316C0B8504AF0232F342F452F562F4E
S1131310672F782F8827B850BAF7B85F49F08695B9
S1131320779567955795479537952795BA95B9F762
S113133016F40E94E80988940895889460E070E0A7
S1131340CB010895E89409C097FB3EF490958095ED
S1131350709561957F4F8F4F9F4F9923A9F0F92F77
S113136096E9BB279395F695879577956795B795F5
S1131370F111F8CFFAF4BB0F11F460FF1BC06F5FDB
S11313807F4F8F4F9F4F16C0882311F096E911C0ED
S1131390772321F09EE8872F762F05C0662371F00E
S11313A096E8862F70E060E02AF09A95660F771F22
S11313B0881FDAF7880F9695879597F9089597F916
S11313C09F6780E870E060E008959FEF80EC0895E7
S11313D090958095709560955095409530952195A0
S11313E03F4F4F4F5F4F6F4F7F4F8F4F9F4F08952A
S11313F000240A94161617061806090608950024F0
S11314000A9412161306140605060895092E039469
S1131410000C11F4882352F0BB0F40F4BF2B11F4DD
S113142060FF04C06F5F7F4F8F4F9F4F089557FD3C
S11314309058440F551F59F05F3F71F04795880F3E
S113144097FB991F61F09F3F79F0879508951216D5
S113145013061406551FF2CF4695F1DF08C0161681
S113146017061806991FF1CF869571056105089432
S11314700895E894BB2766277727CB0197F9089549
S1131480EE0FFF1F0590F491E02D099497FB10F8DF
S1131490169400080F93083098F00850232F342F27
S11314A0452F562F672F782F892F902DF4CF059431
S11314B09795879577956795579547953795279588
S10F14C00A95AAF70F910895F894FFCF45
S9030000FC
